:020000040800F2
:10000000F02A0020ED0200086999000861990008B3
:10001000659900083D050008219D0008FF020008C1
:1000200000000000000000000000000071990008BE
:1000300041050008000000006D990008759900084E
:100040000903000809030008090300080903000860
:100050000903000809030008090300080903000850
:100060000903000809030008090300080903000840
:100070000903000809030008090300080903000830
:100080000903000809030008090300080903000820
:100090000903000809030008090300080903000810
:1000A0000903000809030008090300080903000800
:1000B00009030008090300080903000809030008F0
:1000C00009030008090300080903000809030008E0
:1000D00000000000090300080903000809030008E4
:1000E00009030008090300080903000809030008C0
:1000F00009030008090300080903000809030008B0
:10010000090300080903000809030008090300089F
:10011000090300080903000809030008090300088F
:10012000090300080903000809030008090300087F
:10013000090300080903000809030008090300086F
:10014000090300080903000809030008090300085F
:10015000090300080903000809030008090300084F
:10016000090300080903000809030008090300083F
:10017000090300080903000809030008090300082F
:10018000090300080903000809030008090300081F
:10019000090300080903000809030008090300080F
:1001A00009030008090300080903000809030008FF
:1001B00009030008090300080903000809030008EF
:1001C00009030008090300080903000809030008DF
:1001D00009030008090300080903000809030008CF
:1001E00009030008090300080903000809030008BF
:1001F00009030008090300080903000809030008AF
:1002000009030008090300080903000800000000B2
:1002100000000000090300080000000009030008B6
:10022000090300080903000809030008090300087E
:10023000090300080903000809030008090300086E
:1002400009030008090300080903000800F002F888
:1002500000F03CF80AA090E8000C82448344AAF124
:100260000107DA4501D100F031F8AFF2090EBAE822
:100270000F0013F0010F18BFFB1A43F001031847DA
:100280001814010038140100103A24BF78C878C14E
:10029000FAD8520724BF30C830C144BF04680C608C
:1002A000704700000023002400250026103A28BFD4
:1002B00078C1FBD8520728BF30C148BF0B607047D8
:1002C0001FB510F0D1FE1FBD10B510BD00F033F802
:1002D0001146FFF7F5FF0EF07BF800F051F803B47C
:1002E000FFF7F2FF03BC00F059F800000A4880470E
:1002F0000A480047FEE7FEE7FEE7FEE7FEE7FEE707
:10030000FEE7FEE7FEE7FEE7FEE7000004480549DA
:10031000054A064B70470000859900084D02000809
:10032000F0080020F02A0020F00A0020F00A002047
:10033000704770477047754600F02CF8AE460500D0
:100340006946534620F00700854618B020B5FFF7F0
:10035000DDFFBDE820404FF000064FF000074FF0F2
:1003600000084FF0000BAC46ACE8C009ACE8C0098F
:10037000ACE8C009ACE8C00921F007018D46704720
:1003800010B50446AFF300802046BDE81040FFF7EB
:10039000A6BF000000487047100000200149182047
:1003A000ABBEFEE726000200704753EA020C00F0E5
:1003B00069802DE9F04B4FF00006002B1FBFB3FA08
:1003C00083F503FA05F424FA05F65E4012BF1643DE
:1003D000B2FA82F502FA05F4C5F120051EBF22FA31
:1003E00005FC44EA0C04203556EA044C4FEA144458
:1003F00018BF641C4FF000084FF00009904271EBE9
:10040000030C39D3002919BFB1FA81F701FA07F6B5
:10041000B0FA80F700FA07F6C7F120071EBF20FAEE
:1004200007FC46EA0C062037B6FBF4FCA7EB0507F1
:10043000103F07F01F0BCBF120062CFA06F60CFA42
:100440000BFB44BFB3460026202FA4BF5E464FF0EF
:10045000000B5BEA060C08BF4FF0010B19EB0B0910
:1004600048EB0608ABFB027C06FB02CC0BFB03CC83
:10047000C01B71EB0C01C1E70B46024641464846E2
:10048000BDE8F08B13B5084318BF4FF0FF300146AD
:10049000AFF30080BDE81C40704702F0FF0343EA61
:1004A000032242EA024200F002B84FF0000204299F
:1004B000C0F0128010F0030C00F01B80CCF1040C93
:1004C000BCF1020F18BF00F8012BA8BF20F8022BC7
:1004D000A1EB0C0100F00DB85FEAC17C24BF00F86D
:1004E000012B00F8012B48BF00F8012B70474FF09B
:1004F000000200B5134694469646203922BFA0E874
:100500000C50A0E80C50B1F12001BFF4F7AF09077F
:1005100028BFA0E80C5048BF0CC05DF804EB890070
:1005200028BF40F8042B08BF704748BF20F8022BB3
:1005300011F0804F18BF00F8012B7047FEE7000054
:100540007047000010B502460020D2F17F0370EB27
:100550000103C0F2A780013A61F10001D2F13F032B
:1005600070EB0101C2F0D882DFE812F040003601E2
:10057000D6128C01D612D612D612E401D612D61299
:10058000D612D612D612D612D6123A02D612D612D7
:10059000D612D612D612D612D612D612D612D6121B
:1005A000D612D612D612D612D6129002D612D61261
:1005B000D612D612D612D612D612D612D612D612FB
:1005C000D612D612D612D612D612D612D612D612EB
:1005D000D612D612D612D612D612D612D612D612DB
:1005E000D612D612D612D612D612E60240F6004E17
:1005F000C4F2024EDEF8D80010F0070200F04C847E
:10060000DEF80000012A40F0558410F0006000F090
:100610005184DEF83C20DEF82C30DEF82C00DEF8C9
:100620002C10C0F30520DEF84040002801F078804F
:10063000C4F3CC0401F0100104FB01F16FF35F225D
:1006400000EE101A03F00301B8EE400A032901F08E
:100650007782022901F082820129DEF8001002EE81
:10066000102AC1F3C10149F200039FEDB13AC0F273
:10067000D033B8EE422A23FA01F120EE030AB7EE96
:10068000003A01EE101A32EE032AB8EE411A03EED8
:10069000100A32EE000AB8EE432A20EE010A01F0F9
:1006A00071BA00BF40F2FF339B1A70EB010365DBA8
:1006B00082F080030B4300F0958282F480730B4339
:1006C00000F0E68282F40072114342F0258240F687
:1006D0000041C4F20241D1F8D80010F0605200F09D
:1006E000D7830868B2F1006F40F0FA8510F000601F
:1006F00000F0F685CA6BCB6AC86AC0F3052CC86ADD
:100700000C6CBCF1000F04BF002010BDC4F3CC047E
:1007100000F0100004FB00F06FF35F2200EE100AFF
:1007200003F00300B8EE400A032801F04D810228CF
:1007300001F058810128086802EE102AC0F3C100B8
:1007400049F200039FED7A3AC0F2D033B8EE422A64
:1007500023FA00F020EE030AB7EE003A01EE100A89
:1007600032EE032AB8EE411A03EE10CA32EE000A46
:10077000B8EE432A20EE010A01F048B982F4806302
:100780000B4300F0DB8282F400630B4300F02C8308
:1007900082F48052114318BF10BD40F60041C4F2EC
:1007A0000241D1F8E00000F0E062B2F1007F00F019
:1007B000E385B2F1807F00F02386002A40F0648652
:1007C000C86900F01800082841F0768040F6001251
:1007D000C0F23D0202F067BA40F60041C4F20241A5
:1007E000D1F8D80010F0380200F052830868082AC7
:1007F00040F0B28310F0006000F0AE83CA6BCB6AA9
:10080000C86AC0F3052CC86A0C6CBCF1000F00F07C
:100810008787C4F3CC0400F0100004FB00F06FF3F2
:100820005F2200EE100A03F00300B8EE400A03282E
:1008300001F0C081022801F0CB810128086802EE96
:10084000102AC0F3C10049F200039FED393AC0F20B
:10085000D033B8EE422A23FA00F020EE030AB7EEB6
:10086000003A01EE100A32EE032AB8EE411A03EE06
:1008700010CA32EE000AB8EE432A20EE010A01F057
:10088000BBB900BF40F60041C4F20241D1F8D80024
:1008900010F4E07200F0FC820868402A40F0A28365
:1008A00010F0006000F09E83CA6BCB6AC86AC0F388
:1008B000052CC86A0C6CBCF1000F00F03187C4F342
:1008C000CC0400F0100004FB00F06FF35F2200EE98
:1008D000100A03F00300B8EE400A032801F09E81DD
:1008E000022801F0A9810128086802EE102AC0F34D
:1008F000C10049F200039FED0E3AC0F2D033B8EECA
:10090000422A23FA00F020EE030AB7EE003A01EE85
:10091000100A32EE032AB8EE411A03EE10CA32EE84
:10092000000AB8EE432A20EE010A01F099B900BF8F
:100930000000003940F60041C4F20241D1F8D8006D
:1009400010F4606200F0A4820868B2F5007F40F005
:10095000978310F0006000F09383CA6BCB6AC86A7B
:10096000C0F3052CC86A0C6CBCF1000F00F0D886EF
:10097000C4F3CC0400F0100004FB00F06FF35F221E
:1009800000EE100A03F00300B8EE400A032801F05D
:100990007981022801F084810128086802EE102A7A
:1009A000C0F3C10049F200031FED1F3AC0F2D0337B
:1009B000B8EE422A23FA00F020EE030AB7EE003A1E
:1009C00001EE100A32EE032AB8EE411A03EE10CA05
:1009D00032EE000AB8EE432A20EE010A01F074B9A3
:1009E00040F60041C4F20241D1F8D80010F4E042D0
:1009F00000F04E820868B2F5805F40F08D8310F001
:100A0000006000F08983CA6BCB6AC86AC0F3052C0A
:100A1000C86A0C6CBCF1000F00F08286C4F3CC04F1
:100A200000F0100004FB00F06FF35F2200EE100AEC
:100A300003F00300B8EE400A032801F057810228B2
:100A400001F062810128086802EE102AC0F3C1009B
:100A500049F200031FED4A3AC0F2D033B8EE422A01
:100A600023FA00F020EE030AB7EE003A01EE100A76
:100A700032EE032AB8EE411A03EE10CA32EE000A33
:100A8000B8EE432A20EE010A01F052B940F60041C7
:100A9000C4F20241D1F8D80010F4603200F0F881BD
:100AA0000868B2F5004F40F0838310F0006000F05A
:100AB0007F83CA6BCB6AC86AC0F3052CC86A0C6C0A
:100AC000BCF1000F00F02C86C4F3CC0400F0100041
:100AD00004FB00F06FF35F2200EE100A03F0030046
:100AE000B8EE400A032801F03581022801F0448164
:100AF0000128086802EE102AC0F3C10049F2000381
:100B00001FED753AC0F2D033B8EE422A23FA00F056
:100B100020EE030AB7EE003A01EE100A32EE032A85
:100B2000B8EE411A03EE10CA32EE000AB8EE432ABC
:100B300020EE010A01F034B940F60041C4F202414E
:100B4000D1F8D80010F4E01200F0A2810868B2F5E4
:100B5000802F40F0798310F0006000F07583CA6B3D
:100B6000CB6AC86AC0F3052CC86A0C6CBCF1000FD4
:100B700000F0D685C4F3CC0400F0100004FB00F0B4
:100B80006FF35F2200EE100A03F00300B8EE400A94
:100B9000032801F01781022801F024810128086848
:100BA00002EE102AC0F3C10049F200031FEDA03A83
:100BB000C0F2D033B8EE422A23FA00F020EE030A46
:100BC000B7EE003A01EE100A32EE032AB8EE411AEF
:100BD00003EE10CA32EE000AB8EE432A20EE010AF4
:100BE00001F014B940F60044C4F20244D4F8D8002D
:100BF00010F4600200F04C812068B2F5001F40F054
:100C00005F8410F0006000F05B84E26BE36AE06AEE
:100C1000C0F3052CE06A216CBCF1000F00F0808568
:100C2000C1F3CC0100F0100001FB00F06FF35F2274
:100C300000EE100A03F00300B8EE400A032801F0AA
:100C4000BF81022801F0CA810128206802EE102A23
:100C5000C0F3C10049F200011FEDCB3AC0F2D03120
:100C6000B8EE422A21FA00F020EE030AB7EE003A6D
:100C700001EE100A32EE032AB8EE411A03EE10CA52
:100C800032EE000AB8EE432A20EE010A01F0BAB9AA
:100C900040F60041C4F20241D1F8D80010F0E06201
:100CA00000F0F6800868B2F1807F40F0578410F0C1
:100CB000006000F05384CA6BCB6AC86AC0F3052C8D
:100CC000C86A0C6CBCF1000F00F02A85C4F3CC0498
:100CD00000F0100004FB00F06FF35F2200EE100A3A
:100CE00003F00300B8EE400A032801F09D810228BA
:100CF00001F0AA810128086802EE102AC0F3C100A1
:100D000049F200031FEDF63AC0F2D033B8EE422AA2
:100D100023FA00F020EE030AB7EE003A01EE100AC3
:100D200032EE032AB8EE411A03EE10CA32EE000A80
:100D3000B8EE432A20EE010A01F09AB940F60041CC
:100D4000C4F20241D1F8DC0010F0070200F0A080EC
:100D50000868012A40F04E8410F0006000F04A84D8
:100D6000CA6BCB6AC86AC0F3052CC86A0C6CBCF1AC
:100D7000000F00F0D584C4F3CC0400F0100004FB95
:100D800000F06FF35F2200EE100A03F00300B8EEEC
:100D9000400A032801F07E81022801F089810128A0
:100DA000086802EE102AC0F3C10049F200039FED6B
:100DB000B33AC0F2D033B8EE422A23FA00F020EE64
:100DC000030AB7EE003A01EE100A32EE032AB8EE3B
:100DD000411A03EE10CA32EE000AB8EE432A20EEA2
:100DE000010A01F079B900BF40F60041C4F20241A6
:100DF000D1F8DC0010F070024AD00868102A40F0E8
:100E0000458410F0006000F04184CA6BCB6AC86A68
:100E1000C0F3052CC86A0C6CBCF1000F00F0808494
:100E2000C4F3CC0400F0100004FB00F06FF35F2269
:100E300000EE100A03F00300B8EE400A032801F0A8
:100E40005D81022801F068810128086802EE102AFD
:100E5000C0F3C10049F200039FED883AC0F2D033DD
:100E6000B8EE422A23FA00F020EE030AB7EE003A69
:100E700001EE100A32EE032AB8EE411A03EE10CA50
:100E800032EE000AB8EE432A20EE010A01F058B90A
:100E9000BDE8104008F014BCDEF81C0000F018009B
:100EA000082840F03F8440F60012C0F23D0201F0F5
:100EB000A8BE00BFDEF80000022A40F0478410F010
:100EC000005000F04384DEF84420DEF83030DEF8D5
:100ED0003000C0F3052CDEF83000DEF84810BCF11D
:100EE000000F00F01D84C1F3CC0100F0100001FBE5
:100EF00000F06FF35F2200EE100A03F00300B8EE7B
:100F0000400A032801F08282022801F08D82012824
:100F1000DEF8000002EE102AC0F3C10049F2000121
:100F20009FED563AC0F2D031B8EE422A21FA00F0D5
:100F300020EE030AB7EE003A01EE100A32EE032A61
:100F4000B8EE411A03EE10CA32EE000AB8EE432A98
:100F500020EE010A01F07CBA102A40F00B844A6CA2
:100F60000B6B086BC0F3052C086B8C6CBCF1000F8D
:100F700000F0D683C4F3CC0400F0100004FB00F0B2
:100F80006FF35F2200EE100A03F00300B8EE400A90
:100F9000032801F07582022801F080820128086888
:100FA00002EE102AC0F3C10049F200039FED333A6C
:100FB000C0F2D033B8EE422A23FA00F020EE030A42
:100FC000B7EE003A01EE100A32EE032AB8EE411AEB
:100FD00003EE10CA32EE000AB8EE432A20EE010AF0
:100FE00001F070BA0868802A40F0DC8310F00050ED
:100FF00000F0D8834A6C0B6B086BC0F3052C086BB0
:101000008C6CBCF1000F00F08B83C4F3CC0400F0B7
:10101000100004FB00F06FF35F2200EE100A03F0F3
:101020000300B8EE400A032801F06082022801F0B4
:101030006B820128086802EE102AC0F3C10049F251
:1010400000039FED0E3AC0F2D033B8EE422A23FAE5
:1010500000F020EE030AB7EE003A01EE100A32EE7D
:10106000032AB8EE411A03EE10CA32EE000AB8EEB7
:10107000432A20EE010A01F05BBA00BF00000039EC
:101080000868B2F5806F40F0A78310F0005000F0C0
:10109000A3834A6C0B6B086BC0F3052C086B8C6C3C
:1010A000BCF1000F00F03C83C4F3CC0400F010004E
:1010B00004FB00F06FF35F2200EE100A03F0030060
:1010C000B8EE400A032801F04782022801F052825C
:1010D0000128086802EE102AC0F3C10049F200039B
:1010E0001FED1A3AC0F2D033B8EE422A23FA00F0CC
:1010F00020EE030AB7EE003A01EE100A32EE032AA0
:10110000B8EE411A03EE10CA32EE000AB8EE432AD6
:1011100020EE010A01F042BA0868B2F5005F40F023
:10112000778310F0005000F073834A6C0B6B086BF0
:10113000C0F3052C086B8C6CBCF1000F00F0F08242
:10114000C4F3CC0400F0100004FB00F06FF35F2246
:1011500000EE100A03F00300B8EE400A032801F085
:101160002F82022801F03A820128086802EE102A34
:10117000C0F3C10049F200031FED403AC0F2D03382
:10118000B8EE422A23FA00F020EE030AB7EE003A46
:1011900001EE100A32EE032AB8EE411A03EE10CA2D
:1011A00032EE000AB8EE432A20EE010A01F02ABA14
:1011B0000868B2F5803F40F0478310F0005000F01F
:1011C00043834A6C0B6B086BC0F3052C086B8C6C6B
:1011D000BCF1000F00F0A482C4F3CC0400F01000B6
:1011E00004FB00F06FF35F2200EE100A03F003002F
:1011F000B8EE400A032801F01982022801F0248287
:101200000128086802EE102AC0F3C10049F2000369
:101210001FED663AC0F2D033B8EE422A23FA00F04E
:1012200020EE030AB7EE003A01EE100A32EE032A6E
:10123000B8EE411A03EE10CA32EE000AB8EE432AA5
:1012400020EE010A01F014BA0868B2F5002F40F050
:10125000178310F0005000F013834A6C0B6B086B7F
:10126000C0F3052C086B8C6CBCF1000F00F05882A9
:10127000C4F3CC0400F0100004FB00F06FF35F2215
:1012800000EE100A03F00300B8EE400A032801F054
:101290000182022801F00C820128086802EE102A5F
:1012A000C0F3C10049F200031FED8C3AC0F2D03305
:1012B000B8EE422A23FA00F020EE030AB7EE003A15
:1012C00001EE100A32EE032AB8EE411A03EE10CAFC
:1012D00032EE000AB8EE432A20EE010A01F0FCB912
:1012E0000868B2F1805F40F0FB8210F0005000F01F
:1012F000F7824A6C0B6B086BC0F3052C086B8C6C87
:10130000BCF1000F00F00C82C4F3CC0400F010001C
:1013100004FB00F06FF35F2200EE100A03F00300FD
:10132000B8EE400A032801F0A782022801F0B28239
:101330000128086802EE102AC0F3C10049F2000338
:101340001FEDB23AC0F2D033B8EE422A23FA00F0D1
:1013500020EE030AB7EE003A01EE100A32EE032A3D
:10136000B8EE411A03EE10CA32EE000AB8EE432A74
:1013700020EE010A01F0A2BA4A6C0B6B086BC0F3B5
:10138000052C086B8C6CBCF1000F00F0C981C4F314
:10139000CC0400F0100004FB00F06FF35F2200EEBD
:1013A000100A03F00300B8EE400A032800F0DA86C2
:1013B000022800F0E5860128086802EE102AC0F332
:1013C000C10049F200031FEDD33AC0F2D033B8EEAA
:1013D000422A23FA00F020EE030AB7EE003A01EEAB
:1013E000100A32EE032AB8EE411A03EE10CA32EEAA
:1013F000000AB8EE432A20EE010A00F0D5BE00BF75
:10140000CA6BCB6AC86AC0F3052CC86A0C6CBCF105
:10141000000F00F08581C4F3CC0400F0100004FB41
:1014200000F06FF35F2200EE100A03F00300B8EE45
:10143000400A032800F0CA86022800F0D586012859
:10144000086802EE102AC0F3C10049F200031FED44
:10145000F53AC0F2D033B8EE422A23FA00F020EE7B
:10146000030AB7EE003A01EE100A32EE032AB8EE94
:10147000411A03EE10CA32EE000AB8EE432A20EEFB
:10148000010A00F0C5BE00BF0B680868B2F1407FDA
:1014900003D113F0020340F08E82B2F1806F03D1CA
:1014A00010F4007040F0CB82D1F8F000B2F1A06FE0
:1014B00000F002014FF0000008BF880301F02CBBD0
:1014C0002068B2F5800F40F0258210F0005000F047
:1014D0002182D4F844E0236B206BC0F3052C206BF1
:1014E000A26CBCF1000F00F01B81C2F3CC0100F034
:1014F000100001FB00F06FF35F2E00EE100A03F006
:101500000300B8EE400A032801F0EA81022801F046
:10151000F5810128206802EE10EAC0F3C10049F20B
:1015200000019FEDEE3AC0F2D031B8EE422A21FA26
:1015300000F020EE030AB7EE003A01EE100A32EE98
:10154000032AB8EE411A03EE10CA32EE000AB8EED2
:10155000432A20EE010A01F0E5B900BF0868B2F1A4
:10156000007F40F0F18110F0005000F0ED814A6CF6
:101570000B6B086BC0F3052C086B8C6CBCF1000F77
:1015800000F0CE80C4F3CC0400F0100004FB00F0A7
:101590006FF35F2200EE100A03F00300B8EE400A7A
:1015A000032801F0D181022801F0DC8101280868BC
:1015B00002EE102AC0F3C10049F200039FEDC73AC2
:1015C000C0F2D033B8EE422A23FA00F020EE030A2C
:1015D000B7EE003A01EE100A32EE032AB8EE411AD5
:1015E00003EE10CA32EE000AB8EE432A20EE010ADA
:1015F00001F0CCB90868022A40F0C08110F0005018
:1016000000F0BC814A6C0B6B086BC0F3052C086BB7
:101610008C6CBCF1000F00F08380C4F3CC0400F0AC
:10162000100004FB00F06FF35F2200EE100A03F0DD
:101630000300B8EE400A032801F0BA81022801F045
:10164000C5810128086802EE102AC0F3C10049F2E2
:1016500000039FEDA23AC0F2D033B8EE422A23FA3B
:1016600000F020EE030AB7EE003A01EE100A32EE67
:10167000032AB8EE411A03EE10CA32EE000AB8EEA1
:10168000432A20EE010A01F0B5B900BF0868202AFC
:1016900040F08A8110F0005000F086814A6C0B6B9C
:1016A000086BC0F3052C086B8C6CBCF1000F37D0B5
:1016B000C4F3CC0400F0100004FB00F06FF35F22D1
:1016C00000EE100A03F00300B8EE400A032801F010
:1016D000A381022801F0AE810128086802EE102AD9
:1016E000C0F3C10049F200039FED7C3AC0F2D03351
:1016F000B8EE422A23FA00F020EE030AB7EE003AD1
:1017000001EE100A32EE032AB8EE411A03EE10CAB7
:1017100032EE000AB8EE432A20EE010A01F09EB92B
:10172000002010BDDEF81C0010F0180F00F0A8819A
:10173000DEF81C0000F01800102840F0B18147F6D8
:101740004002C0F27D1201F05CBA00BFDEF800106A
:10175000DEF80000032A03D111F0020140F02B81D2
:10176000042A03D110F4007040F06981DEF8F00023
:1017700012E100BF0B680868182A03D113F00203B6
:1017800040F01981202A03D110F4007040F05781F5
:10179000D1F8F000282A00F002014FF0000008BF45
:1017A000880310BD0B680868C02A03D113F0020338
:1017B00040F00181B2F5807F03D110F4007040F059
:1017C0003E81D1F8F000B2F5A07F00F002014FF0A9
:1017D000000008BF880310BD0B680868B2F5C06F31
:1017E00003D113F0020340F0E680B2F5006F03D19D
:1017F00010F4007040F02381D1F8F000B2F5206FB2
:1018000000F002014FF0000008BF880310BD00BFC8
:101810000B680868B2F5405F03D113F0020340F093
:10182000CA80B2F5804F03D110F4007040F00781F8
:10183000D1F8F000B2F5A04F00F002014FF0000027
:1018400008BF880310BD00BF0B680868B2F5C03F31
:1018500003D113F0020340F0AE80B2F5003F03D194
:1018600010F4007040F0EB80D1F8F000B2F5203FAA
:1018700000F002014FF0000008BF880310BD00BF58
:101880000B680868B2F5402F03D113F0020340F053
:101890009280B2F5801F03D110F4007040F0CF8029
:1018A000D1F8F000B2F5A01F00F002014FF00000E7
:1018B00008BF880310BD00BFC86910F0180F00F002
:1018C0003181C86900F01800102840F0B38447F651
:1018D0004002C0F27D1201F0E6B900BF00000039FD
:1018E0000B680868B2F1C05F02D113F0020362D145
:1018F000B2F1005F03D110F4007040F0A080D1F885
:10190000F000B2F1205F00F002014FF0000008BFCC
:10191000880310BD21682068B2F5C00F02D111F014
:10192000020148D1B2F5000F03D110F4007040F06D
:101930008680D4F8F000B2F5200F00F002014FF0DD
:10194000000008BF880310BD0B680868B2F1407F33
:1019500002D113F002032ED1B2F1806F02D110F444
:1019600000706CD1D1F8F000B2F1A06F00F002016C
:101970004FF0000008BF880310BD00BF0B68086867
:10198000032A02D113F0020315D1042A02D110F464
:10199000007054D1D1F8F00000F002010020052AB7
:1019A00008BF880310BD00BF0B680868302A3FD10C
:1019B00013F002033CD0C0F3C10049F20001C0F2B1
:1019C000D03121FA00F010BD01EE102A1FED3D2AA2
:1019D000B8EE411A20EE020A30EE010A9FEDE41A39
:1019E0000CE000BF01EE102A1FED442AB8EE411AA8
:1019F00020EE020A30EE010A9FEDDE1A02EE10CA56
:101A000020EE010AB8EE422A30EE010A80EE020A08
:101A10000868000142BFC86A5FEAC030C86B086846
:101A2000000102D5C86A80030ED400201DE000BF6B
:101A3000402A40F0E18410F4007000F0DD8440F6AC
:101A40000010C0F23D0010BDC86BB7EE002AC0F315
:101A5000064001EE100AB8EE411A31EE021A80EE8D
:101A6000010ABCEEC00A10EE100A0A68120144BF57
:101A7000CA6A5FEA423241F14F80C96B10BD00BFB4
:101A8000DEF8000049F200028006C0F2D03241F1D7
:101A9000B880DEF80000C0F3C100C24001F0B1B868
:101AA000DEF81C0049F2000200F018001828C0F20D
:101AB000D03241F0A680DEF82830DEF82800DEF8CB
:101AC0002810C0F30520DEF83840002801F05A80C5
:101AD000C1F30011C4F3CC0404FB01F100EE101AB1
:101AE00003F00301B8EE400A032901F04F800129F9
:101AF00041F05E80DEF80010890601F1F180DEF829
:101B000034101FED8A2A6FF35F2101EE101A20EEC8
:101B1000020AB8EE411A30EE010A9FEDB11A01F047
:101B200057B800BF086849F200028006C0F2D03200
:101B300041F1B9800868C0F3C100C24001F0B3B8F8
:101B400001EE102A1FED9B2AB8EE411A20EE020A80
:101B500030EE010A9FED861A0CE000BF01EE102A5C
:101B60001FEDA22AB8EE411A20EE020A30EE010A59
:101B70009FED801A02EE100A20EE010AB8EE422A0A
:101B800030EE010A80EE020ADEF80000000142BFDA
:101B9000DEF82C005FEAC030DEF83C00DEF8000022
:101BA000000104D5DEF82C00800300F14181002003
:101BB00050E100BF01EE102A1FEDB82AB8EE411A1D
:101BC00020EE020A30EE010A9FED691A0CE000BF18
:101BD00001EE102A1FEDBF2AB8EE411A20EE020ACC
:101BE00030EE010A9FED631A02EE10CA20EE010AE0
:101BF000B8EE422A30EE010A80EE020A08680001BF
:101C000042BFC86A5FEAC030C86B0868000103D5EC
:101C1000C86A800300F12C8100203AE101EE102A0D
:101C20001FEDD22AB8EE411A20EE020A30EE010A68
:101C30009FED4F1A0CE000BF01EE102A1FEDD92ACC
:101C4000B8EE411A20EE020A30EE010A9FED491A61
:101C500002EE10CA20EE010AB8EE422A30EE010A66
:101C600080EE020A0868000142BFC86A5FEAC0301D
:101C7000C86B0868000103D5C86A800300F11481AD
:101C8000002022E101EE102A9FEDEE2AB8EE411A63
:101C900020EE020A30EE010A9FED351A0CE000BF7B
:101CA00001EE102A9FEDE72AB8EE411A20EE020A53
:101CB00030EE010A9FED2F1A02EE10CA20EE010A43
:101CC000B8EE422A30EE010A80EE020A08680001EE
:101CD00042BFC86A5FEAC030C86B0868000103D51C
:101CE000C86A800300F1FC8000200AE101EE102A9E
:101CF0009FEDD42AB8EE411A20EE020A30EE010A16
:101D00009FED1B1A0CE000BF01EE102A9FEDCD2ABB
:101D1000B8EE411A20EE020A30EE010A9FED151AC4
:101D200002EE10CA20EE010AB8EE422A30EE010A95
:101D300080EE020A0868000142BFC86A5FEAC0304C
:101D4000C86B0868000103D5C86A800300F1E4800D
:101D50000020F2E001EE102A9FEDBA2AB8EE411AF7
:101D600020EE020A30EE010A9FED011A10E000BFDA
:101D700020BCBE4B0024744A01EE102A9FEDB12A0C
:101D8000B8EE411A20EE020A30EE010A1FED071AE2
:101D900002EE10CA20EE010AB8EE422A30EE010A25
:101DA00080EE020A0868000142BFC86A5FEAC030DC
:101DB000C86B0868000103D5C86A800300F1C880B9
:101DC0000020D6E001EE102A9FED9E2AB8EE411ABF
:101DD00020EE020A30EE010A1FED1B1A0EE000BFD2
:101DE0000024744C01EE102A9FED962AB8EE411A99
:101DF00020EE020A30EE010A1FED221A02EE10CA8E
:101E000020EE010AB8EE422A30EE010A80EE020A04
:101E10000868000142BFC86A5FEAC030C86B086842
:101E2000000103D5C86A800300F1AE800020BCE049
:101E3000DEF83C00B7EE002AC0F3064001EE100ABF
:101E4000B8EE411A31EE021A80EE010ABCEEC00A69
:101E500010EE100ADEF80010090144BFDEF82C1065
:101E60005FEA413140F15886DEF83C1010BD00BFFA
:101E7000C86BB7EE002AC0F3064001EE100AB8EEB8
:101E8000411A31EE021A80EE010ABCEEC00A10EED1
:101E9000100A0A68120144BFCA6A5FEA423240F17E
:101EA0003B86C96B10BD00BFC86BB7EE002AC0F3FC
:101EB000064001EE100AB8EE411A31EE021A80EE29
:101EC000010ABCEEC00A10EE100A0A68120144BFF3
:101ED000CA6A5FEA423240F11F86C96B10BD00BF7B
:101EE000C86BB7EE002AC0F3064001EE100AB8EE48
:101EF000411A31EE021A80EE010ABCEEC00A10EE61
:101F0000100A0A68120144BFCA6A5FEA423240F10D
:101F10000386C96B10BD00BFC86BB7EE002AC0F3C3
:101F2000064001EE100AB8EE411A31EE021A80EEB8
:101F3000010ABCEEC00A10EE100A0A68120144BF82
:101F4000CA6A5FEA423240F1E785C96B10BD00BF43
:101F5000C86BB7EE002AC0F3064001EE100AB8EED7
:101F6000411A31EE021A80EE010ABCEEC00A10EEF0
:101F7000100A0A68120144BFCA6A5FEA423240F19D
:101F8000CB85C96B10BD00BFC86BB7EE002AC0F38C
:101F9000064001EE100AB8EE411A31EE021A80EE48
:101FA000010ABCEEC00A10EE100A0A68120144BF12
:101FB000CA6A5FEA423240F1AF85C96B10BD00BF0B
:101FC00001EE102A9FED1F2AB8EE411A20EE020AF8
:101FD00030EE010A1FED9A1A0CE000BF01EE102A44
:101FE0009FED182AB8EE411A20EE020A30EE010ADF
:101FF0001FEDA01A02EE10CA20EE010AB8EE422A26
:1020000030EE010A80EE020A2068000142BFE06A59
:102010005FEAC030E06B2068000103D5E06A80030E
:1020200000F14481002052E101EE102A9FED052AC3
:10203000B8EE411A20EE020A30EE010A1FEDB41A82
:102040000EE000BF0000003901EE102A1FED032A48
:10205000B8EE411A20EE020A30EE010A1FEDBB1A5B
:1020600002EE10CA20EE010AB8EE422A30EE010A52
:1020700080EE020A0868000142BFC86A5FEAC03009
:10208000C86B0868000103D5C86A800300F12A8183
:10209000002038E101EE102A1FED162AB8EE411A91
:1020A00020EE020A30EE010A1FEDCF1A0CE000BF4D
:1020B00001EE102A1FED1D2AB8EE411A20EE020A89
:1020C00030EE010A1FEDD51A02EE10CA20EE010A09
:1020D000B8EE422A30EE010A80EE020A08680001DA
:1020E00042BFC86A5FEAC030C86B0868000103D508
:1020F000C86A800300F11281002020E101EE102A5D
:102100001FED302AB8EE411A20EE020A30EE010A25
:102110001FEDE91A0CE000BF01EE102A1FED372A6F
:10212000B8EE411A20EE020A30EE010A1FEDEF1A56
:1021300002EE10CA20EE010AB8EE422A30EE010A81
:1021400080EE020A0868000142BFC86A5FEAC03038
:10215000C86B0868000103D5C86A800300F1FA80E3
:10216000002008E101EE102A1FED4A2AB8EE411ABC
:1021700020EE020A30EE010A9FEDDB1A0CE000BFF0
:1021800001EE102A1FED512AB8EE411A20EE020A84
:1021900030EE010A9FEDEF1A02EE10CA20EE010A9E
:1021A000B8EE422A30EE010A80EE020A086880008A
:1021B00042BF086B5FEAC030486C0868800003D5F6
:1021C000086B800300F1E2800020F0E001EE102AAD
:1021D0001FED642AB8EE411A20EE020A30EE010A21
:1021E0009FEDC11A0CE000BF01EE102A1FED6B2A13
:1021F000B8EE411A20EE020A30EE010A9FEDD51A20
:1022000002EE10CA20EE010AB8EE422A30EE010AB0
:1022100080EE020A0868000142BFC86A5FEAC03067
:10222000C86B0868000103D5C86A800300F1C88044
:102230000020D6E0C86949F2000200F01800182812
:10224000C0F2D03240F02F858B6A886A8C6AC0F366
:10225000052C886BBCF1000F00F09684C4F30014C9
:10226000C0F3CC0000FB04F000EE100A03F0030002
:10227000B8EE400A032800F0DB84012840F0EC842B
:102280000868800600F15085486B1FED922A6FF3B5
:102290005F2001EE100A20EE020AB8EE411A30EE7D
:1022A000010A9FEDE11A00F0E6BC00BFE06BB7EE5B
:1022B000002AC0F3064001EE100AB8EE411A31EED2
:1022C000021A80EE010ABCEEC00A10EE100A216864
:1022D000090144BFE16A5FEA413140F11D84E16BCD
:1022E00010BD00BFC86BB7EE002AC0F3064001EE78
:1022F000100AB8EE411A31EE021A80EE010ABCEE65
:10230000C00A10EE100A0A68120144BFCA6A5FEAE6
:10231000423240F10184C96B10BD00BFC86BB7EEFB
:10232000002AC0F3064001EE100AB8EE411A31EE61
:10233000021A80EE010ABCEEC00A10EE100A0A680A
:10234000120144BFCA6A5FEA423240F1E583C96BB9
:1023500010BD00BFC86BB7EE002AC0F3064001EE07
:10236000100AB8EE411A31EE021A80EE010ABCEEF4
:10237000C00A10EE100A0A68120144BFCA6A5FEA76
:10238000423240F1C983C96B10BD00BF486CB7EE43
:10239000002AC0F3064001EE100AB8EE411A31EEF1
:1023A000021A80EE010ABCEEC00A10EE100A0A689A
:1023B000920044BF0A6B5FEA423240F1AD83C5E34D
:1023C000C86BB7EE002AC0F3064001EE100AB8EE63
:1023D000411A31EE021A80EE010ABCEEC00A10EE7C
:1023E000100A0A68120144BFCA6A5FEA423240F129
:1023F0009383C96B10BD00BFD1F8F000502A00F0E4
:1024000002014FF0000008BF880310BD01EE102A42
:102410009FEDE42AB8EE411A20EE020A30EE010ADE
:102420009FED311A0CE000BF01EE102A9FEDDD2A6E
:10243000B8EE411A20EE020A30EE010A9FED451A6D
:1024400002EE10CA20EE010AB8EE422A30EE010A6E
:1024500080EE020ADEF80000800042BFDEF83000A5
:102460005FEAC030DEF84400DEF80000800004D5EA
:10247000DEF83000800300F14181002050E100BF10
:1024800001EE102A9FEDC72AB8EE411A20EE020A8B
:1024900030EE010A9FED141A0CE000BF01EE102A85
:1024A0009FEDC02AB8EE411A20EE020A30EE010A72
:1024B0009FED281A02EE10CA20EE010AB8EE422A59
:1024C00030EE010A80EE020A0868800042BF086B05
:1024D0005FEAC030486C0868800003D5086B800351
:1024E00000F12C8100203AE120BCBE4B01EE102A05
:1024F0009FEDAC2AB8EE411A20EE020A30EE010A36
:102500001FED071A0CE000BF01EE102A9FEDA52A6F
:10251000B8EE411A20EE020A30EE010A9FED0D1AC4
:1025200002EE10CA20EE010AB8EE422A30EE010A8D
:1025300080EE020A0868800042BF086B5FEAC03084
:10254000486C0868800003D5086B800300F1108197
:1025500000201EE10024744A01EE102A9FED912A0A
:10256000B8EE411A20EE020A30EE010A1FED221ADF
:102570000CE000BF01EE102A9FED8A2AB8EE411A46
:1025800020EE020A30EE010A1FED0E1A02EE10CA0A
:1025900020EE010AB8EE422A30EE010A80EE020A6D
:1025A0000868800042BF086B5FEAC030486C08686A
:1025B000800003D5086B800300F1F680002004E161
:1025C00001EE102A9FED772AB8EE411A20EE020A9A
:1025D00030EE010A1FED3C1A0CE000BF01EE102A9C
:1025E0009FED702AB8EE411A20EE020A30EE010A81
:1025F0001FED281A02EE10CA20EE010AB8EE422A98
:1026000030EE010A80EE020A0868800042BF086BC3
:102610005FEAC030486C0868800003D5086B80030F
:1026200000F1DC800020EAE00024744C01EE102A66
:102630009FED5C2AB8EE411A20EE020A30EE010A44
:102640001FED571A0CE000BF01EE102A9FED552A2E
:10265000B8EE411A20EE020A30EE010A1FED431ACD
:1026600002EE10CA20EE010AB8EE422A30EE010A4C
:1026700080EE020A0868800042BF086B5FEAC03043
:10268000486C0868800003D5086B800300F1C080A7
:102690000020CEE001EE102A9FED422AB8EE411A4A
:1026A00020EE020A30EE010A1FED711A0CE000BFA5
:1026B00001EE102A9FED3B2AB8EE411A20EE020AE5
:1026C00030EE010A1FED5D1A02EE10CA20EE010A7B
:1026D000B8EE422A30EE010A80EE020A0868800055
:1026E00042BF086B5FEAC030486C0868800003D5C1
:1026F000086B800300F1A6800020B4E0DEF84400FF
:10270000B7EE002AC0F3064001EE100AB8EE411AF7
:1027100031EE021A80EE010ABCEEC00A10EE100A79
:10272000DEF80010890044BFDEF830105FEA413166
:1027300040F1F281DEF8441010BD00BF486CB7EEE6
:10274000002AC0F3064001EE100AB8EE411A31EE3D
:10275000021A80EE010ABCEEC00A10EE100A0A68E6
:10276000920044BF0A6B5FEA423240F1D581EDE14D
:10277000486CB7EE002AC0F3064001EE100AB8EE2E
:10278000411A31EE021A80EE010ABCEEC00A10EEC8
:10279000100A0A68920044BF0A6B5FEA423240F1B5
:1027A000BB81D3E100000039486CB7EE002AC0F3CA
:1027B000064001EE100AB8EE411A31EE021A80EE20
:1027C000010ABCEEC00A10EE100A0A68920044BF6B
:1027D0000A6B5FEA423240F19F81B7E1486CB7EE85
:1027E000002AC0F3064001EE100AB8EE411A31EE9D
:1027F000021A80EE010ABCEEC00A10EE100A0A6846
:10280000920044BF0A6B5FEA423240F185819DE14C
:10281000486CB7EE002AC0F3064001EE100AB8EE8D
:10282000411A31EE021A80EE010ABCEEC00A10EE27
:10283000100A0A68920044BF0A6B5FEA423240F114
:102840006B8183E1486CB7EE002AC0F3064001EECD
:10285000100AB8EE411A31EE021A80EE010ABCEEFF
:10286000C00A10EE100A0A68920044BF0A6B5FEAC1
:10287000423240F1518169E101EE102A1FED372A01
:10288000B8EE411A20EE020A30EE010A1FEDEA1AF4
:102890000CE000BF01EE102A1FED3E2AB8EE411AEF
:1028A00020EE020A30EE010A1FEDD61A02EE10CA1F
:1028B00020EE010AB8EE422A30EE010A80EE020A4A
:1028C0000868800042BF086B5FEAC030486C086847
:1028D000800003D5086B800300F1D2800020E0E087
:1028E00001EE10EA1FED512AB8EE411A20EE020A5D
:1028F00030EE010A9FEDD61A0CE000BF01EE10EA9F
:102900001FED582AB8EE411A20EE020A30EE010AF5
:102910009FEDD01A02EE10CA20EE010AB8EE422A4C
:1029200030EE010A80EE020A2068800042BF206B70
:102930005FEAC030606C2068800003D5206B8003A4
:1029400000F1B8800020C6E001EE102A1FED6B2ACE
:10295000B8EE411A20EE020A30EE010A9FEDBC1AD1
:102960000CE000BF01EE102A1FED722AB8EE411AEA
:1029700020EE020A30EE010A9FEDB61A02EE10CAEE
:1029800020EE010AB8EE422A30EE010A80EE020A79
:102990000868800042BF086B5FEAC030486C086876
:1029A000800003D5086B800300F19E800020ACE01E
:1029B00001EE102A9FEDED2AB8EE411A20EE020A30
:1029C00030EE010A9FEDEA1A0CE000BF01EE102A7A
:1029D0009FEDE62AB8EE411A20EE020A30EE010A17
:1029E0009FEDE41A02EE10CA20EE010AB8EE422A68
:1029F00030EE010A80EE020A0868800042BF086BD0
:102A00005FEAC030486C0868800003D5086B80031B
:102A100000F18480002092E001EE102A9FEDD32A7D
:102A2000B8EE411A20EE020A30EE010A9FEDD01AEC
:102A30000CE000BF01EE102A9FEDCC2AB8EE411A3F
:102A400020EE020A30EE010A9FEDCA1A02EE10CA09
:102A500020EE010AB8EE422A30EE010A80EE020AA8
:102A60000868800042BF086B5FEAC030486C0868A5
:102A7000800002D5086B80036AD4002079E000BF93
:102A8000486CB7EE002AC0F3064001EE100AB8EE1B
:102A9000411A31EE021A80EE010ABCEEC00A10EEB5
:102AA000100A0A68920044BF0A6B5FEA423233D5CB
:102AB0004CE000BF606CB7EE002AC0F3064001EEA8
:102AC000100AB8EE411A31EE021A80EE010ABCEE8D
:102AD000C00A10EE100A2168890044BF216B5FEA2A
:102AE000413119D5616C10BD486CB7EE002AC0F3B6
:102AF000064001EE100AB8EE411A31EE021A80EEDD
:102B0000010ABCEEC00A10EE100A0A68920044BF27
:102B10000A6B5FEA423219D410BD00BF486CB7EEB1
:102B2000002AC0F3064001EE100AB8EE411A31EE59
:102B3000021A80EE010ABCEEC00A10EE100A0A6802
:102B4000920044BF0A6B5FEA4232E5D5496C10BD82
:102B5000486CB7EE002AC0F3064001EE100AB8EE4A
:102B6000411A31EE021A80EE010ABCEEC00A10EEE4
:102B7000100A0A68920044BF0A6B5FEA4232CBD562
:102B8000E4E700BF00223CE000228CE0DEF83410D5
:102B90009FED762A6FF35F2101EE101A20EE020AF4
:102BA000B8EE411A30EE010A9FED711A10E000BF35
:102BB000DEF834109FED6D2A6FF35F2101EE101ADD
:102BC00020EE020AB8EE411A30EE010A9FED691AB2
:102BD00002EE100A20EE010AB8EE422A30EE010A97
:102BE00080EE020ADEF83400C0F34620013001EE28
:102BF000100AB8EE411A80EE010ABCEEC00A10EECF
:102C0000102ADEF8200041F21C1100F00F00C0F67F
:102C10000101085C40F2000100F01F0022FA00F000
:102C2000C2F200018860DEF82010C1F302214EE0FC
:102C3000486B9FED4E2A6FF35F2001EE100A20EEE5
:102C4000020AB8EE411A30EE010A9FED491A12E06D
:102C500020BCBE4B0024744A486B9FED442A6FF39E
:102C60005F2001EE100A20EE020AB8EE411A30EEA3
:102C7000010A9FED401A02EE10CA20EE010AB8EEDA
:102C8000422A30EE010A80EE020A486BC0F3462069
:102C9000013001EE100AB8EE411A80EE010ABCEED6
:102CA000C00A10EE102A086A41F21C1300F00F004F
:102CB000C0F60103185C00F01F0022FA00F040F299
:102CC0000002C2F200029060096AC1F3023141F2CF
:102CD0005C12C0F60102515C01F01F01C84010BD3A
:102CE000DEF800109FED213AC1F3C10120EE030A86
:102CF00022FA01F1B7EE003A01EE101ADEF83410B4
:102D000030EE030A6FF35F2102EE101AB8EE411A9B
:102D1000B8EE422A03EE100A30EE020AB8EE432A59
:102D200020EE010A5CE700BF08689FED103AC0F38F
:102D3000C10020EE030A22FA00F0B7EE003A01EEDD
:102D4000100A486B30EE030A6FF35F2002EE100AA0
:102D5000B8EE411AB8EE422A03EE10CA30EE020A6B
:102D6000B8EE432A20EE010A8DE700BF00000039CB
:102D700020BCBE4B0024744A2DE9F043D0E9008CFE
:102D800040F6304E5FEAC811C4F2024E07D5DEF8B5
:102D9000B810826D21F040411143CEF8B81040F6D2
:102DA00000435FEAC871C4F2024312D0C16D052925
:102DB00000F26A86DFE811F006006C069C06060049
:102DC00006000600DEF8A82022F007021143CEF824
:102DD000A810002401275FEA887117D5066E4FEA14
:102DE000F601052900F2B486DFE811F00600B60608
:102DF000E80606000600060047B1DEF8A81021F03C
:102E000038013143CEF8A810002100E021462546C4
:102E10005FEA487218D5466E4FEAB612052A00F2EC
:102E2000FF86DFE812F007000107330707000700FD
:102E3000070000BF0C4641B9DEF8A81021F4E0718C
:102E40003143CEF8A81000212C465FEA087217D54E
:102E5000866E4FEA7622052A00F24A87DFE812F0F2
:102E600006004C077E070600060006000D4641B925
:102E7000DEF8A81021F460613143CEF8A8100021DB
:102E800025465FEAC86217D5C66E4FEA3632052A74
:102E900000F29687DFE812F006009807CA070600DE
:102EA000060006000C4641B9DEF8A81021F4E04106
:102EB0003143CEF8A81000212C465FEA886217D56E
:102EC000066F4FEAF632052A00F2E287DFE812F0D9
:102ED0000600E40716080600060006000D4641B984
:102EE000DEF8A81021F460313143CEF8A81000219B
:102EF00025465FEA486217D5466F4FEAB642052A73
:102F000001F22E80DFE812F00600300862080600A9
:102F1000060006000C4641B9DEF8A81021F4E011C5
:102F20003143CEF8A81000212C465FEA086217D57D
:102F3000866F4FEA7652052A01F27A80DFE812F0B6
:102F400006007C08AE080600060006000D4641B9E2
:102F5000DEF8A81021F460013143CEF8A81000215A
:102F600025465FEAC85217D5C66F4FEA3662052A72
:102F700001F2C680DFE812F00600C808FA08060071
:102F8000060006000C4641B9DEF8A81021F0E06109
:102F90003143CEF8A81000212C465FEA885219D59B
:102FA000D0F880604FEAF662052A01F21181DFE86D
:102FB00012F007001309450907000700070000BFCA
:102FC0000D4641B9DEF8A81021F060513143CEF82A
:102FD000A810002125465FEA485217D5D0F8846032
:102FE000052E01F25D81DFE816F007005F09910907
:102FF00007000700070000BF0C4641B9DEF8AC101F
:1030000021F007013143CEF8AC1000212C465FEAD5
:10301000085219D5D0F888604FEA3612052A01F215
:10302000A781DFE812F00700A909DB090700070004
:10303000070000BF0D4641B9DEF8AC1021F0700169
:103040003143CEF8AC10002125465FEAC84219D5BD
:10305000D0F88C404FEA3462052A01F2F181DFE8B2
:1030600012F00700F309250A07000700070000BF58
:103070000E4641B9DEF8B01021F0E0612143CEF8F0
:10308000B01000212E465FEA884247D5D0F8905014
:103090006FF0010202EB3542022A35D34FEA354286
:1030A00092B3012A40F03C82196840F6D40721F01F
:1030B00080511960C2F200077A691968890041F1EC
:1030C000CD847969891A022901F24A851968890033
:1030D00041F1C4847969891A022901F2418519688C
:1030E000890041F1BB847969891A022901F2388586
:1030F0001968890041F1B28479698C1A0321022C84
:103100004FF00304D9D90AE00C4641B9DEF8B410F7
:1031100021F440312943CEF8B410002134465FEA4F
:10312000484247D5D0F894606FF0010202EBB642F6
:10313000022A35D34FEAB64292B3012A40F0F48115
:10314000196840F6D40721F080511960C2F20007D7
:103150007A691968890041F107857969891A022914
:1031600001F284851968890041F1FE847969891A20
:10317000022901F27B851968890041F1F58479699A
:10318000891A022901F272851968890041F1EC84DB
:1031900079698D1A0321022D4FF00305D9D90AE070
:1031A0000D4641B9DEF8B41021F440213143CEF888
:1031B000B410002125465FEA084247D5D0F8986050
:1031C0006FF0010202EB3652022A35D34FEA365233
:1031D00092B3012A40F0AC81196840F6D40721F07F
:1031E00080511960C2F200077A691968890041F1BB
:1031F00041857969891A022901F2BE851968890019
:1032000041F138857969891A022901F2B585196871
:10321000890041F12F857969891A022901F2AC856B
:103220001968890041F1268579698C1A0321022CDD
:103230004FF00304D9D90AE00C4641B9DEF8B410C6
:1032400021F440113143CEF8B41000212C465FEA3E
:103250004C5247D5D0F89C506FF0010202EBB552AA
:10326000022A35D34FEAB55292B3012A40F0648165
:10327000196840F6D40721F080511960C2F20007A6
:103280007A691968890041F17B857969891A02296F
:1032900001F2F8851968890041F172857969891A06
:1032A000022901F2EF851968890041F16985796980
:1032B000891A022901F2E6851968890041F16085C1
:1032C00079698E1A0321022E4FF00306D9D90AE03C
:1032D0000E4641B9DEF8B41021F440012943CEF87E
:1032E000B410002126465FEAC83211D5D0F8A040BC
:1032F000002C18BFB4F1007F40F0DE800D4641B9CC
:10330000DEF8B41021F040712143CEF8B410002152
:1033100035465FEA0C5208D5DA6922F40042DA61D8
:10332000D0F80421DC692243DA615FEA883219D5DA
:10333000D0F8A4604FEA3622052A01F2E980DFE8DE
:1033400012F00700EB081D0907000700070000BF87
:103350000C4641B9DEF8AC1021F4E0613143CEF8FF
:10336000AC1000212C465FEA483219D5D0F8A8608D
:103370004FEA3632052A01F23381DFE812F0070006
:103380003509670907000700070000BF0D4641B96E
:10339000DEF8AC1021F4E0413143CEF8AC1000214E
:1033A00025465FEA8C6219D5D0F8AC604FEA364208
:1033B000052A01F27D81DFE812F007007F09B109DB
:1033C00007000700070000BF0C4641B9DEF8AC104B
:1033D00021F4E0213143CEF8AC1000212C465FEA05
:1033E0004C6219D5D0F8B0604FEA3652052A01F286
:1033F000C781DFE812F00700C909FB0907000700D1
:10340000070000BF0D4641B9DEF8AC1021F4E00121
:103410003143CEF8AC10002125465FEA0C6219D585
:10342000D0F8B4404FEA3462052A01F21182DFE895
:1034300012F00700130A450A07000700070000BF43
:103440000E4641B9DEF8AC1021F0E0612143CEF820
:10345000AC1000212E465FEACC5219D5D0F8B850F6
:103460004FEA3572052A01F25B82DFE812F00700AD
:103470005D0A8F0A07000700070000BF0C4641B92C
:10348000DEF8AC1021F0E0412943CEF8AC10002169
:1034900034465FEA083267D5D0F8C0604FEA36425A
:1034A000042A4DD8DFE802F05076A604040000BFDD
:1034B00000290D4659D14FE0B4F1807F40F0CA8019
:1034C000196840F6D40721F080511960C2F2000754
:1034D0007A691968890041F1D9847969891A0229C0
:1034E00001F256851968890041F1D0847969891AF9
:1034F000022901F24D851968890041F1C784796973
:10350000891A022901F244851968890041F1BE84B3
:1035100079698D1A0321022D4FF00305D9D9F8E6F8
:1035200001240121FBE500BF0125012143E600BF85
:10353000012401218BE600BF01260121D3E600BF53
:103540000125012111E000BF5EF8082C42F4003291
:103550004EF8082C0D4641B9DEF8B81021F4E021F0
:103560003143CEF8B810002125465FEAC82240F169
:103570008980D0F8C4404FEAF442042A6ED8DFE8CC
:1035800012F07100230253020500050000290E46C7
:1035900079D16FE0196840F6D40721F08061196095
:1035A000C2F200077A691968090141F1F584796965
:1035B000891A022901F2F8851968090141F1EC84A0
:1035C0007969891A022901F2EF851968090141F127
:1035D000E3847969891A022901F2E68519680901EB
:1035E00041F1DA8479698D1A0321022D4FF0030528
:1035F000D9D9BAE7196840F6D40721F0805119608B
:10360000C2F200077A691968890041F14B8579692E
:10361000891A022901F2C8851968890041F1428599
:103620007969891A022901F2BF851968890041F177
:1036300039857969891A022901F2B68519688900E4
:1036400041F1308579698D1A0321022D4FF0030570
:10365000D9D98AE7012501215BE600BF01260121B6
:1036600011E000BF5EF8082C42F400324EF8082C3E
:103670000E4641B9DEF8B81021F460112143CEF8AE
:10368000B81000212E465FEA882211D5D0F8D44028
:10369000052C01F2AD81022C01F0AE810F4641B93B
:1036A000DEF8B81021F007012143CEF8B810002150
:1036B00037465FEA8C5219D5D0F8D82042F008047A
:1036C000082C05D10C4649B15FEA881212D47BE080
:1036D000012401215FEA881276D50BE0DEF8B810EC
:1036E00021F008011143CEF8B81000213C465FEAF2
:1036F000881269D54FF62442CFF6FF729D5845F0E7
:1037000001059D5040F6D405C2F200056E699F5830
:10371000FF071BD16F69BF1B022F14D89F58FF07EB
:1037200014D16F69BF1B022F0DD89F58FF070DD111
:103730006F69BF1B022F06D89F58FF0706D16F691C
:10374000BF1B022FE3D9032703213EE00F46E1BB55
:10375000DEF8C010D0F8F86011F4407116D0B14214
:1037600011D0DEF8C010DEF8C02021F4407142F420
:103770008032CEF8C020DEF8C02022F48032CEF8AD
:10378000C020CEF8C010C90745F05686D9694FF65B
:10379000CF7506F4407221F47C51C0F2FF0505EAB2
:1037A0001615B2F5407F08BF2943D961DEF8C01075
:1037B0006FF31F3621F44071CEF8C010DEF8C01050
:1037C0003143CEF8C010002127465FEA481221D5C8
:1037D000D0F8C8206FF0010404EB3214022C0AD395
:1037E0004FEA32143CB1012C60D15EF8084C44F42D
:1037F00000344EF8084C0D4621B15FEA48220ED441
:1038000001F0DFBCDEF8B81021F030011143CEF832
:10381000B81000213D465FEA482241F1D284D0F839
:10382000CC206AB3402A39D1196840F6D40621F079
:1038300080611960C2F200067269196809013DD5FC
:103840007169891A022900F2B7801968090135D512
:103850007169891A022900F2AF80196809012DD512
:103860007169891A022900F2A7801968090125D512
:1038700071698C1A0321022C4FF00304DDD99DE0FD
:103880005EF8082C002942F400320C464EF8082C51
:1038900040F09480002101F08CBC00BF0124012184
:1038A0005FEA082201F1928401F071BE0125012135
:1038B0005FEA482241F18584B1E700BF5EF8041C4D
:1038C00043F6037200F10807914394CF114341EA94
:1038D000042142694EF8041C4FF47E4404EB42225A
:1038E0008469791E4FF4FE0792B207EB04446FF32C
:1038F0005F21114404F4FE02C4694FF0FE4707EB58
:103900000464114404F0FE421144CEF80C105EF839
:10391000041C026A21F00C0111434EF8041C5EF8ED
:10392000041C426A21F0200111434EF8041CC16AB4
:103930005EF8042C11434EF8041C5EF8041C4FF68C
:10394000F87221F010014EF8041CDEF81010846AA1
:10395000914341EAC401CEF810105EF8041C41F016
:1039600010014EF8041C196841F0806119607269F9
:103970001968090101F11C847169891A02291BD88F
:103980001968090101F114847169891A022913D88F
:103990001968090101F10C847169891A02290BD88F
:1039A0001968090101F1048471698C1A0321022C40
:1039B0004FF00304DCD901E0032403215FEA08226D
:1039C00001F1048401F0E3BD196840F6D40721F049
:1039D00080611960C2F200077A691968090141F132
:1039E000C1847969891A022901F2C485196809011B
:1039F00041F1B8847969891A022901F2BB851968F5
:103A0000090141F1AF847969891A022901F2B2856D
:103A10001968090141F1A68479698E1A0321022EE1
:103A20004FF00306D9D92EE6196840F6D40721F0E5
:103A300080511960C2F200077A691968890041F162
:103A400017857969891A022901F294851968890014
:103A500041F10E857969891A022901F28B8519686D
:103A6000890041F105857969891A022901F2828567
:103A70001968890041F1FC8479698E1A0321022EAC
:103A80004FF00306D9D9FEE501240027FFF7A3B9BB
:103A90001A6840F6D40522F080621A60C2F200056E
:103AA0006E69032400271A68120142F147866A6989
:103AB000921B022A02F242871A68120142F13E86E4
:103AC0006A69921B022A02F239871A68120142F1CE
:103AD00035866A69921B022A02F230871A6812013F
:103AE00042F12C866A69921B022ADCD9FFF773B96E
:103AF0001A6840F6D40522F080521A60C2F200051E
:103B00006E69032400271A68920042F199866A6957
:103B1000921B022A02F212871A68920042F19086E2
:103B20006A69921B022A02F209871A68920042F11E
:103B300087866A69921B022A02F200871A6892003D
:103B400042F17E866A69921B022ADCD9FFF743B9EB
:103B500001210125FFF75CB9196840F6D40721F06F
:103B600080611960C2F200077A691968090142F19F
:103B7000E9867969891A022905F28E841968090192
:103B800042F1E0867969891A022902F2E58719680B
:103B9000090142F1D7867969891A022902F2DC8784
:103BA0001968090142F1CE8679698D1A0321022D27
:103BB0004FF00305D9D9FFF72BB900BF196840F6BC
:103BC000D40721F080511960C2F200077A691968A0
:103BD000890042F13D877969891A022905F25C84DE
:103BE0001968890042F134877969891A022902F239
:103BF000B3871968890042F12B877969891A0229EC
:103C000002F2AA871968890042F1228779698D1A20
:103C10000321022D4FF00305D9D9FFF7F9B800BFF2
:103C200001210124FFF711B9196840F6D40721F0EA
:103C300080611960C2F200077A691968090142F1CE
:103C40008F877969891A022905F22A84196809017E
:103C500042F186877969891A022903F28B801968F3
:103C6000090142F17D877969891A022903F282806C
:103C70001968090142F1748779698C1A0321022CB1
:103C80004FF00304D9D9FFF7E0B800BF196840F638
:103C9000D40721F080511960C2F200077A691968CF
:103CA000890042F1E3877969891A022905F2F883CC
:103CB0001968890042F1DA877969891A022903F2C1
:103CC00059801968890042F1D1877969891A0229D6
:103CD00003F250801968890042F1C88779698C1A0B
:103CE0000321022C4FF00304D9D9FFF7AEB800BF6F
:103CF00001210125FFF7C5B8196840F6D40721F066
:103D000080611960C2F200077A691968090143F1FC
:103D100035807969891A022903F238811968090105
:103D200043F12C807969891A022903F22F811968DD
:103D3000090143F123807969891A022903F2268156
:103D40001968090143F11A8079698D1A0321022D3E
:103D50004FF00305D9D9FFF794B800BF196840F6B2
:103D6000D40721F080511960C2F200077A691968FE
:103D7000890043F189807969891A022903F2068151
:103D80001968890043F180807969891A022903F250
:103D9000FD801968890043F177807969891A0229C1
:103DA00003F2F4801968890043F16E8079698D1AF5
:103DB0000321022D4FF00305D9D9FFF762B800BFE8
:103DC00001240121FFF779B8196840F6D40721F0E2
:103DD00080611960C2F200077A691968090143F12C
:103DE000D9807969891A022903F2DC8119680901ED
:103DF00043F1D0807969891A022903F2D3811968C5
:103E0000090143F1C7807969891A022903F2CA813D
:103E10001968090143F1BE8079698C1A0321022CCB
:103E20004FF00304D9D9FFF748B800BF196840F62E
:103E3000D40721F080511960C2F200077A6919682D
:103E4000890043F12D817969891A022903F2AA8137
:103E50001968890043F124817969891A022903F2DA
:103E6000A1811968890043F11B817969891A0229A6
:103E700003F298811968890043F1128179698C1ADB
:103E80000321022C4FF00304D9D9FFF716B800BF65
:103E900001250121FFF72DB8196840F6D40721F05C
:103EA00080611960C2F200077A691968090143F15B
:103EB0007D817969891A022903F2808219680901D2
:103EC00043F174817969891A022903F277821968AA
:103ED000090143F16B817969891A022903F26E8223
:103EE0001968090143F1628179698D1A0321022D54
:103EF0004FF00305D9D9FEF7FCBF00BF196840F6A3
:103F0000D40721F080511960C2F200077A6919685C
:103F1000890043F1D1817969891A022903F24E821D
:103F20001968890043F1C8817969891A022903F265
:103F300045821968890043F1BF817969891A02298C
:103F400003F23C821968890043F1B68179698D1AC0
:103F50000321022D4FF00305D9D9FEF7CABF00BFD8
:103F600001240121FEF7E1BF196840F6D40721F0D2
:103F700080611960C2F200077A691968090143F18A
:103F800021827969891A022903F2248319680901B7
:103F900043F118827969891A022903F21B8319688F
:103FA000090143F10F827969891A022903F2128308
:103FB0001968090143F1068279698C1A0321022CE0
:103FC0004FF00304D9D9FEF7B0BF00BF196840F61F
:103FD000D40721F080511960C2F200077A6919688C
:103FE000890043F175827969891A022903F2F28204
:103FF0001968890043F16C827969891A022903F2F0
:10400000E9821968890043F163827969891A022972
:1040100003F2E0821968890043F15A8279698C1AA7
:104020000321022C4FF00304D9D9FEF77EBF00BF55
:1040300001250121FEF795BF196840F6D40721F04C
:1040400080611960C2F200077A691968090143F1B9
:10405000C5827969891A022903F2C883196809019E
:1040600043F1BC827969891A022903F2BF83196876
:10407000090143F1B3827969891A022903F2B683EF
:104080001968090143F1AA8279698D1A0321022D69
:104090004FF00305D9D9FEF764BF00BF196840F699
:1040A000D40721F080511960C2F200077A691968BB
:1040B000890043F119837969891A022903F29683E9
:1040C0001968890043F110837969891A022903F27A
:1040D0008D831968890043F107837969891A022958
:1040E00003F284831968890043F1FE8279698D1A8D
:1040F0000321022D4FF00305D9D9FEF732BF00BFCF
:1041000001240121FEF749BF196840F6D40721F0C8
:1041100080611960C2F200077A691968090143F1E8
:1041200069837969891A022903F26C841968090183
:1041300043F160837969891A022903F2638419685B
:10414000090143F157837969891A022903F25A84D4
:104150001968090143F14E8379698C1A0321022CF5
:104160004FF00304D9D9FEF718BF00BF196840F615
:10417000D40721F080511960C2F200077A691968EA
:10418000890043F1BD837969891A022903F23A84CF
:104190001968890043F1B4837969891A022903F205
:1041A00031841968890043F1AB837969891A02293E
:1041B00003F228841968890043F1A28379698C1A73
:1041C0000321022C4FF00304D9D9FEF7E6BE00BF4D
:1041D00001250121FEF7FFBE196840F6D40721F042
:1041E00080611960C2F200077A691968090143F118
:1041F0000D847969891A022903F210851968090169
:1042000043F104847969891A022903F20785196840
:10421000090143F1FB837969891A022903F2FE84BB
:104220001968090143F1F28379698D1A0321022D7E
:104230004FF00305D9D9FEF7CEBE00BF196840F68E
:10424000D40721F080511960C2F200077A69196819
:10425000890043F161847969891A022903F2DE84B5
:104260001968890043F158847969891A022903F28F
:10427000D5841968890043F14F847969891A022924
:1042800003F2CC841968890043F1468479698D1A58
:104290000321022D4FF00305D9D9FEF79CBE00BFC4
:1042A00001240121FEF7B3BE196840F6D40721F0BE
:1042B00080611960C2F200077A691968090143F147
:1042C000B1847969891A022903F2B4851968090150
:1042D00043F1A8847969891A022903F2AB85196828
:1042E000090143F19F847969891A022903F2A285A1
:1042F0001968090143F1968479698C1A0321022C0B
:104300004FF00304D9D9FEF782BE00BF196840F60A
:10431000D40721F080511960C2F200077A69196848
:10432000890043F105857969891A022903F282859A
:104330001968890043F1FC847969891A022903F21A
:1043400079851968890043F1F3847969891A02290A
:1043500003F270851968890043F1EA8479698C1A3F
:104360000321022C4FF00304D9D9FEF750BE00BF41
:1043700001250121FEF769BE196840F6D40721F036
:1043800080611960C2F200077A691968090143F176
:1043900055857969891A022903F258861968090135
:1043A00043F14C857969891A022903F24F8619680D
:1043B000090143F143857969891A022903F2468686
:1043C0001968090143F13A8579698D1A0321022D93
:1043D0004FF00305D9D9FEF738BE00BF196840F683
:1043E000D40721F080511960C2F200077A69196878
:1043F000890043F1A9857969891A022903F2268681
:104400001968890043F1A0857969891A022903F2A4
:104410001D861968890043F197857969891A0229EF
:1044200003F214861968890043F18E8579698D1A23
:104430000321022D4FF00305D9D9FEF706BE00BFB8
:1044400001260121FEF71FBE196840F6D40721F0AE
:1044500080611960C2F200077A691968090143F1A5
:10446000F9857969891A022903F2FC86196809011C
:1044700043F1F0857969891A022903F2F3861968F4
:10448000090143F1E7857969891A022903F2EA866D
:104490001968090143F1DE8579698E1A0321022E1C
:1044A0004FF00306D9D9FEF7EEBD00BF196840F6FC
:1044B000D40721F080511960C2F200077A691968A7
:1044C000890043F14D867969891A022903F2CA8667
:1044D0001968890043F144867969891A022903F22F
:1044E000C1861968890043F13B867969891A0229D6
:1044F00003F2B8861968890043F1328679698E1A09
:104500000321022E4FF00306D9D9FEF7BCBD00BF30
:1045100001240121FEF727BF196840F6D40721F0D6
:1045200080611960C2F200077A691968090143F1D4
:104530009D867969891A022903F2A0871968090101
:1045400043F194867969891A022903F297871968D9
:10455000090143F18B867969891A022903F28E8752
:104560001968090143F1828679698C1A0321022CAA
:104570004FF00304D9D9FEF7F6BE00BF196840F624
:10458000D40721F080511960C2F200077A691968D6
:10459000890043F1F1867969891A022903F26E874D
:1045A0001968890043F1E8867969891A022903F2BA
:1045B00065871968890043F1DF867969891A0229BC
:1045C00003F25C871968890043F1D68679698C1AF1
:1045D0000321022C4FF00304D9D9FEF7C4BE00BF5B
:1045E00001250121FEF7DDBE196840F6D40721F050
:1045F00080611960C2F200077A691968090143F104
:1046000041877969891A022904F2448019680901ED
:1046100043F138877969891A022904F23B801968C5
:10462000090143F12F877969891A022904F232803E
:104630001968090143F1268779698D1A0321022D32
:104640004FF00305D9D9FEF7ACBE00BF196840F69C
:10465000D40721F080511960C2F200077A69196805
:10466000890043F195877969891A022904F2128039
:104670001968890043F18C877969891A022904F243
:1046800009801968890043F183877969891A0229A9
:1046900004F200801968890043F17A8779698D1ADC
:1046A0000321022D4FF00305D9D9FEF77ABE00BFD2
:1046B00001240121FEF793BE196840F6D40721F0CA
:1046C00080611960C2F200077A691968090143F133
:1046D000E5877969891A022904F2E88019680901D5
:1046E00043F1DC877969891A022904F2DF801968AD
:1046F000090143F1D3877969891A022904F2D68026
:104700001968090143F1CA8779698C1A0321022CBF
:104710004FF00304D9D9FEF762BE00BF196840F616
:10472000D40721F080511960C2F200077A69196834
:10473000890044F139807969891A022904F2B68026
:104740001968890044F130807969891A022904F2D4
:10475000AD801968890044F127807969891A022996
:1047600004F2A4801968890044F11E8079698C1ACA
:104770000321022C4FF00304D9D9FEF730BE00BF4D
:1047800001250121FEF749BE196840F6D40721F042
:1047900080611960C2F200077A691968090144F161
:1047A00089807969891A022904F28C8119680901C2
:1047B00044F180807969891A022904F28381196899
:1047C000090144F177807969891A022904F27A8112
:1047D0001968090144F16E8079698D1A0321022D4F
:1047E0004FF00305D9D9FEF718BE00BF196840F68F
:1047F000D40721F080511960C2F200077A69196864
:10480000890044F1DD807969891A022904F25A810C
:104810001968890044F1D4807969891A022904F25F
:1048200051811968890044F1CB807969891A02297C
:1048300004F248811968890044F1C28079698D1AAF
:104840000321022D4FF00305D9D9FEF7E6BD00BFC5
:1048500001260121FEF7FFBD196840F6D40721F0BB
:1048600080611960C2F200077A691968090144F190
:104870002D817969891A022904F2308219680901A7
:1048800044F124817969891A022904F2278219687E
:10489000090144F11B817969891A022904F21E82F7
:1048A0001968090144F1128179698E1A0321022ED7
:1048B0004FF00306D9D9FEF7CEBD00BF196840F608
:1048C000D40721F080511960C2F200077A69196893
:1048D000890044F181817969891A022904F2FE81F3
:1048E0001968890044F178817969891A022904F2EA
:1048F000F5811968890044F16F817969891A022963
:1049000004F2EC811968890044F1668179698E1A94
:104910000321022E4FF00306D9D9FEF79CBD00BF3C
:1049200001240121FEF7B5BD196840F6D40721F036
:1049300080611960C2F200077A691968090144F1BF
:10494000D1817969891A022904F2D482196809018E
:1049500044F1C8817969891A022904F2CB82196865
:10496000090144F1BF817969891A022904F2C282DE
:104970001968090144F1B68179698C1A0321022C66
:104980004FF00304D9D9FEF784BD00BF196840F683
:10499000D40721F080511960C2F200077A691968C2
:1049A000890044F125827969891A022904F2A282D8
:1049B0001968890044F11C827969891A022904F274
:1049C00099821968890044F113827969891A022948
:1049D00004F290821968890044F10A8279698C1A7C
:1049E0000321022C4FF00304D9D9FEF752BD00BFBA
:1049F00001270121FEF75DBE196840F6D40521F0BC
:104A000080611960C2F200056A691968090144F100
:104A100075826969891A022904F2F282196809010A
:104A200044F16C826969891A022904F2E9821968E1
:104A3000090144F163826969891A022904F2E0825A
:104A40001968090144F15A8269698F1A0321022FFA
:104A50004FF00307D9D9FEF72CBE00BFDEF80010D7
:104A600043F6037200F13009914399E814021143AF
:104A700041EA0421C26B4FF47E44CEF8001004EBEF
:104A80004222046CA9F101011FFA82F94FF4FE02DF
:104A90006FF35F2102EB0442446C89444FF0FE4106
:104AA00001EB046102F4FE024A4401F0FE411144AC
:104AB000CEF81410DEF80010826C21F00C011143C6
:104AC000CEF80010DEF80010C26C21F02001114376
:104AD000CEF80010416DDEF800201143CEF8001032
:104AE000DEF800104FF6F87221F01001CEF8001039
:104AF000DEF81810046D914341EAC401CEF8181095
:104B0000DEF8001041F01001CEF80010196841F0F5
:104B1000805119607A69196889003EF5F7AA7969A8
:104B2000891A02291CD8196889003EF5EFAA79690B
:104B3000891A022914D8196889003EF5E7AA79690B
:104B4000891A02290CD8196889003EF5DFAA79690B
:104B50008C1A0321022C4FF00304DCD9FEF7DFBAD4
:104B600003240321FEF7DBBADEF8001043F60372DC
:104B700000F13009914399E82402114341EA0521EB
:104B8000C26B4FF47E45CEF8001005EB4222056C57
:104B9000A9F101011FFA82F94FF4FE026FF35F21C0
:104BA00002EB0542456C89444FF0FE4101EB056183
:104BB00002F4FE024A4401F0FE411144CEF8141002
:104BC000DEF80010826C21F00C011143CEF80010C9
:104BD000DEF80010C26C21F020011143CEF8001065
:104BE000416DDEF800201143CEF80010DEF8001011
:104BF0004FF6F87221F01001CEF80010DEF8181010
:104C0000056D914341EAC501CEF81810DEF8001099
:104C100041F01001CEF80010196841F08051196080
:104C20007A69196889003EF5BDAA7969891A02294D
:104C30001CD8196889003EF5B5AA7969891A022934
:104C400014D8196889003EF5ADAA7969891A022934
:104C50000CD8196889003EF5A5AA79698D1A032137
:104C6000022D4FF00305DCD9FEF7A5BA0325032179
:104C7000FEF7A1BADEF8001043F6037200F1300926
:104C8000914399E81402114341EA0421C26B4FF4A5
:104C90007E44CEF8001004EB4222046CA9F101011D
:104CA0001FFA82F94FF4FE026FF35F2102EB044218
:104CB000446C89444FF0FE4101EB046102F4FE02B2
:104CC0004A4401F0FE411144CEF81410DEF8001001
:104CD000826C21F00C011143CEF80010DEF80010B8
:104CE000C26C21F020011143CEF80010416DDEF8B6
:104CF00000201143CEF80010DEF800104FF6F872D5
:104D000021F01001CEF80010DEF81810046D914368
:104D100041EAC401CEF81810DEF8001041F010018D
:104D2000CEF80010196841F0805119607A6919684D
:104D300089003EF583AA7969891A02291CD8196865
:104D400089003EF57BAA7969891A022914D8196865
:104D500089003EF573AA7969891A02290CD8196865
:104D600089003EF56BAA79698C1A0321022C4FF059
:104D70000304DCD9FEF76BBA03240321FEF767BAFC
:104D8000DEF8001043F6037200F13009914399E810
:104D90004402114341EA0621C26B4FF47E46CEF82D
:104DA000001006EB4222066CA9F101011FFA82F9FC
:104DB0004FF4FE026FF35F2102EB0642466C89441A
:104DC0004FF0FE4101EB066102F4FE024A4401F09D
:104DD000FE411144CEF81410DEF80010826C21F070
:104DE0000C011143CEF80010DEF80010C26C21F067
:104DF00020011143CEF80010416DDEF80020114370
:104E0000CEF80010DEF800104FF6F87221F0100115
:104E1000CEF80010DEF81810066D914341EAC60185
:104E2000CEF81810DEF8001041F01001CEF8001096
:104E3000196841F0805119607A69196889003EF556
:104E400049AA7969891A02291CD8196889003EF58E
:104E500041AA7969891A022914D8196889003EF58E
:104E600039AA7969891A02290CD8196889003EF58E
:104E700031AA79698E1A0321022E4FF00306DCD97C
:104E8000FEF731BA03260321FEF72DBADEF8001033
:104E900043F6037200F13009914399E8240211436B
:104EA00041EA0521C26B4FF47E45CEF8001005EBB8
:104EB0004222056CA9F101011FFA82F94FF4FE02AA
:104EC0006FF35F2102EB0542456C89444FF0FE41D0
:104ED00001EB056102F4FE024A4401F0FE41114477
:104EE000CEF81410DEF80010826C21F00C01114392
:104EF000CEF80010DEF80010C26C21F02001114342
:104F0000CEF80010416DDEF800201143CEF80010FD
:104F1000DEF800104FF6F87221F01001CEF8001004
:104F2000DEF81810056D914341EAC501CEF818105E
:104F3000DEF8001041F01001CEF80010196841F0C1
:104F4000805119607A69196889003EF5D9A9796993
:104F5000891A02291CD8196889003EF5D1A97969F6
:104F6000891A022914D8196889003EF5C9A97969F6
:104F7000891A02290CD8196889003EF5C1A97969F6
:104F80008D1A0321022D4FF00305DCD9FEF7C1B9BC
:104F900003250321FEF7BDB95EF8041C43F6037236
:104FA00000F10809914399E82402114341EA0521DF
:104FB00042694FF47E454EF8041C05EB4222856998
:104FC000A9F101011FFA82F94FF4FE026FF35F218C
:104FD00002EB0542C56989444FF0FE4101EB0561D2
:104FE00002F4FE024A4401F0FE411144CEF80C10D6
:104FF0005EF8041C026A21F00C0111434EF8041CF7
:105000005EF8041C426A21F0200111434EF8041C92
:10501000C16A5EF8042C11434EF8041C5EF8041CAF
:105020004FF6F87221F010014EF8041CDEF8101053
:10503000856A914341EAC501CEF810105EF8041C60
:1050400041F010014EF8041C196841F080611960AC
:105050007A69196809013EF57FAA7969891A0229D6
:1050600000F2A280196809013EF576AA7969891AC9
:10507000022900F29980196809013EF56DAA796943
:10508000891A022900F29080196809013EF564AA84
:1050900079698D1A0321022D4FF00305D9D9FEF746
:1050A00064BA00BFDEF8001043F6037200F1300965
:1050B000914399E82402114341EA0521C26B4FF460
:1050C0007E45CEF8001005EB4222056CA9F10101E6
:1050D0001FFA82F94FF4FE026FF35F2102EB0542E3
:1050E000456C89444FF0FE4101EB056102F4FE027C
:1050F0004A4401F0FE411144CEF81410DEF80010CD
:10510000826C21F00C011143CEF80010DEF8001083
:10511000C26C21F020011143CEF80010416DDEF881
:1051200000201143CEF80010DEF800104FF6F872A0
:1051300021F01001CEF80010DEF81810056D914333
:1051400041EAC501CEF81810DEF8001041F0100158
:10515000CEF80010196841F0805119607A69196819
:1051600089003EF5F9A97969891A02291CD81968BC
:1051700089003EF5F1A97969891A022914D81968BC
:1051800089003EF5E9A97969891A02290CD81968BC
:1051900089003EF5E1A979698D1A0321022D4FF0AE
:1051A0000305DCD9FEF7E1B903250321FEF7DDB9DC
:1051B0004021DEF8B42022F040021143CEF8B410B2
:1051C00000212C465FEA082240F1E181D0F8D0208E
:1051D00072B3802A38D1196840F6D40621F0806174
:1051E0001960C2F2000672691968090134D5716943
:1051F000891A022900F2AE80196809012CD571695B
:10520000891A022900F2A6801968090124D571695A
:10521000891A022900F29E80196809011CD571695A
:105220008D1A0321022D4FF00305DDD994E000BF54
:105230005EF8082C002942F400320D464EF8082C86
:1052400040F08A8000219AE1012501215FEA0812DD
:1052500040F1C2819FE100BF5EF8041C43F6037277
:1052600000F108079143A4CF114341EA05214269A7
:105270004EF8041C4FF47E4505EB42228569791EE9
:105280004FF4FE0792B207EB05456FF35F2111441F
:1052900005F4FE02C5694FF0FE4707EB05651144B2
:1052A00005F0FE421144CEF80C105EF8041C026AB0
:1052B00021F00C0111434EF8041C5EF8041C426AF4
:1052C00021F0200111434EF8041CC16A5EF8042C41
:1052D00011434EF8041C5EF8041C4FF6F87221F0DE
:1052E00010014EF8041CDEF81010856A914341EA63
:1052F000C501CEF810105EF8041C41F010014EF804
:10530000041C196841F0806119607269196809010B
:1053100000F134817169891A02291BD819680901C1
:1053200000F12C817169891A022913D819680901C1
:1053300000F124817169891A02290BD819680901C1
:1053400000F11C8171698D1A0321022D4FF00305B4
:10535000DCD901E0032503215FEA081240F13C811A
:1053600019E100BF5EF8041C43F6037200F108095E
:10537000914399E84402114341EA062142694FF4FE
:105380007E464EF8041C06EB42228669A9F1010113
:105390001FFA82F94FF4FE026FF35F2102EB06421F
:1053A000C66989444FF0FE4101EB066102F4FE023A
:1053B0004A4401F0FE411144CEF80C105EF8041C82
:1053C000026A21F00C0111434EF8041C5EF8041C23
:1053D000426A21F0200111434EF8041CC16A5EF8B4
:1053E000042C11434EF8041C5EF8041C4FF6F872AE
:1053F00021F010014EF8041CDEF81010866A91436B
:1054000041EAC601CEF810105EF8041C41F010010C
:105410004EF8041C196841F0806119607A691968B6
:1054200009013EF527A97969891A022900F2A280AB
:10543000196809013EF51EA97969891A022900F245
:105440009980196809013EF515A97969891A022917
:1054500000F29080196809013EF50CA979698E1A4D
:105460000321022E4FF00306D9D9FEF70CB900BF75
:10547000DEF8001043F6037200F13009914399E819
:105480004402114341EA0621C26B4FF47E46CEF836
:10549000001006EB4222066CA9F101011FFA82F905
:1054A0004FF4FE026FF35F2102EB0642466C894423
:1054B0004FF0FE4101EB066102F4FE024A4401F0A6
:1054C000FE411144CEF81410DEF80010826C21F079
:1054D0000C011143CEF80010DEF80010C26C21F070
:1054E00020011143CEF80010416DDEF80020114379
:1054F000CEF80010DEF800104FF6F87221F010011F
:10550000CEF80010DEF81810066D914341EAC6018E
:10551000CEF81810DEF8001041F01001CEF800109F
:10552000196841F0805119607A69196889003EF55F
:10553000A1A87969891A02291CD8196889003EF541
:1055400099A87969891A022914D8196889003EF541
:1055500091A87969891A02290CD8196889003EF541
:1055600089A879698E1A0321022E4FF00306DCD92F
:10557000FEF789B803260321FEF785B88021DEF8FF
:10558000B42022F080021143CEF8B4100021254649
:105590005FEA081220D5D0F8E060042E08D8DFE8D2
:1055A00006F00B2F5F0303000C46B1B90CE000BFFF
:1055B0000124012111E000BF5EF8082C42F4003202
:1055C0004EF8082C0C4641B9DEF8B01021F0070166
:1055D0003143CEF8B01000212C465FEAC80240F1FA
:1055E0008380D0F8E4604FEAF602042A68D8DFE846
:1055F00002F06B91C103030000290D4675D16BE0E9
:10560000196840F6D40721F080611960C2F20007E2
:105610007A691968090140F16D857969891A022949
:1056200000F270861968090140F164857969891A68
:10563000022900F267861968090140F15B857969E2
:10564000891A022900F25E861968090140F1528523
:1056500079698C1A0321022C4FF00304D9D9BCE7D5
:10566000196840F6D40721F080511960C2F2000792
:105670007A691968890040F1C3857969891A022914
:1056800000F240861968890040F1BA857969891A63
:10569000022900F237861968890040F1B1857969DD
:1056A000891A022900F22E861968890040F1A8851E
:1056B00079698C1A0321022C4FF00304D9D98CE7A5
:1056C0000125012111E000BF5EF8082C42F40032F0
:1056D0004EF8082C0D4641B9DEF8B01021F0380123
:1056E0003143CEF8B010002125465FEA880240F130
:1056F0008580D0F8E8604FEAB612042A6AD8DFE85D
:1057000012F06D00DB010B020500050000290C46BC
:1057100075D16BE0196840F6D40721F080611960FB
:10572000C2F200077A691968090140F1EF857969C9
:10573000891A022900F2F2861968090140F1E6850A
:105740007969891A022900F2E9861968090140F18C
:10575000DD857969891A022900F2E0861968090154
:1057600040F1D48579698D1A0321022D4FF003058C
:10577000D9D9BAE7196840F6D40721F080511960E9
:10578000C2F200077A691968890040F14586796993
:10579000891A022900F2C2861968890040F13C8604
:1057A0007969891A022900F2B9861968890040F1DD
:1057B00033867969891A022900F2B086196889004E
:1057C00040F12A8679698D1A0321022D4FF00305D5
:1057D000D9D98AE70124012111E000BF5EF8082C25
:1057E00042F400324EF8082C0C4641B9DEF8B010F5
:1057F00021F4E0713143CEF8B01000212C465FEA6D
:10580000480219D5D0F8EC604FEA7622052A00F25A
:10581000B381DFE812F00700B501E50107000700DA
:10582000070000BF0D4641B9DEF8B01021F46061F9
:105830003143CEF8B01000212546B8F1FF3F2DDDF1
:105840002A465FEACC7419D0D0F8F4404FEAF43518
:10585000052D00F2F581DFE815F00700F7012702BA
:1058600007000700070000BF0D4641B9DEF8B01081
:1058700021F460312143CEF8B010002115465FEAD3
:105880008C723BD5D0F8DC40032C23D8DFE804F041
:105890000226E4020A4691BB28E000BFD0F8F0409F
:1058A0004FEA3432052A00F23783DFE812F00700AE
:1058B00039036B0307000700070000BF00290A46F1
:1058C000BFD1DEF8B01021F4E0412143CEF8B01092
:1058D0000021B5E70122012111E000BF5EF8082C8C
:1058E00042F400324EF8082C0A4641B9DEF8B410F2
:1058F00021F003012143CEF8B41000212A465FEACB
:105900004C7418D5D0F8BC505DB1B5F5007F3DD0D2
:10591000B5F5807F6AD15EF8084C44F400344EF847
:10592000084C0C4641B9DEF8B81021F44071294307
:10593000CEF8B810002114465FEACC6216D5D0F834
:105940000021302A0AD0202A54D0102A40F0828028
:105950005EF8083C43F400334EF8083C39B9DEF8F1
:10596000B41021F030011143CEF8B41021465FEAA3
:105970000C7208D5DEF8B820D0F8FC0022F0C00286
:105980001043CEF8B8000846BDE8F083196840F629
:10599000D40621F080611960C2F2000677691968A7
:1059A000090140F1B1817169C91B022900F22E82FF
:1059B0001968090140F1A8817169C91B022900F227
:1059C00025821968090140F19F817169C91B02296B
:1059D00000F21C821968090140F196817169CC1BA3
:1059E0000321022C4FF00304D9D9A5E7012401219A
:1059F000A2E700BF196840F6D40521F08051196074
:105A0000C2F200056E691968890040F10382696974
:105A1000891B022900F27E821968890040F1FA810F
:105A20006969891B022900F275821968890040F1B1
:105A3000F1816969891B022900F26C821968890069
:105A400040F1E8816969891B02294FF00301DAD925
:105A50008DE700BF01218AE7196840F6D40621F0DE
:105A600080611960C2F2000677691968090140F186
:105A7000BB827169C91B022900F2388319680901C8
:105A800040F1B2827169C91B022900F22F831968A3
:105A9000090140F1A9827169C91B022900F226831C
:105AA0001968090140F1A0827169CA1B0321022A09
:105AB0004FF00302D9D922E7196840F6D40721F044
:105AC00080611960C2F200077A691968090140F122
:105AD00029857969891A022900F22C861968090139
